{
  "_format": "hh-sol-artifact-1",
  "contractName": "LaunchpadStaking",
  "sourceName": "contracts/LaunchpadStaking.sol",
  "abi": [
    {
      "inputs": [
        {
          "internalType": "address",
          "name": "owner_",
          "type": "address"
        },
        {
          "internalType": "contract IERC20",
          "name": "_stakeToken",
          "type": "address"
        },
        {
          "internalType": "contract IERC721",
          "name": "_stakeNFT",
          "type": "address"
        },
        {
          "internalType": "contract IEarnToken",
          "name": "_rewardToken",
          "type": "address"
        }
      ],
      "stateMutability": "nonpayable",
      "type": "constructor"
    },
    {
      "inputs": [
        {
          "internalType": "address",
          "name": "owner",
          "type": "address"
        }
      ],
      "name": "OwnableInvalidOwner",
      "type": "error"
    },
    {
      "inputs": [
        {
          "internalType": "address",
          "name": "account",
          "type": "address"
        }
      ],
      "name": "OwnableUnauthorizedAccount",
      "type": "error"
    },
    {
      "inputs": [
        {
          "internalType": "address",
          "name": "token",
          "type": "address"
        }
      ],
      "name": "SafeERC20FailedOperation",
      "type": "error"
    },
    {
      "anonymous": false,
      "inputs": [
        {
          "indexed": true,
          "internalType": "address",
          "name": "previousOwner",
          "type": "address"
        },
        {
          "indexed": true,
          "internalType": "address",
          "name": "newOwner",
          "type": "address"
        }
      ],
      "name": "OwnershipTransferred",
      "type": "event"
    },
    {
      "anonymous": false,
      "inputs": [
        {
          "indexed": true,
          "internalType": "address",
          "name": "user",
          "type": "address"
        },
        {
          "indexed": false,
          "internalType": "uint256",
          "name": "reward",
          "type": "uint256"
        }
      ],
      "name": "RewardPaid",
      "type": "event"
    },
    {
      "anonymous": false,
      "inputs": [
        {
          "indexed": true,
          "internalType": "address",
          "name": "user",
          "type": "address"
        },
        {
          "indexed": false,
          "internalType": "uint256",
          "name": "tokenId",
          "type": "uint256"
        }
      ],
      "name": "StakeNFT",
      "type": "event"
    },
    {
      "anonymous": false,
      "inputs": [
        {
          "indexed": true,
          "internalType": "address",
          "name": "user",
          "type": "address"
        },
        {
          "indexed": false,
          "internalType": "uint256",
          "name": "amount",
          "type": "uint256"
        }
      ],
      "name": "StakeToken",
      "type": "event"
    },
    {
      "anonymous": false,
      "inputs": [
        {
          "indexed": true,
          "internalType": "address",
          "name": "user",
          "type": "address"
        },
        {
          "indexed": false,
          "internalType": "uint256",
          "name": "tokenId",
          "type": "uint256"
        }
      ],
      "name": "UnstakeNFT",
      "type": "event"
    },
    {
      "anonymous": false,
      "inputs": [
        {
          "indexed": true,
          "internalType": "address",
          "name": "user",
          "type": "address"
        },
        {
          "indexed": false,
          "internalType": "uint256",
          "name": "amount",
          "type": "uint256"
        }
      ],
      "name": "UnstakeToken",
      "type": "event"
    },
    {
      "inputs": [],
      "name": "DAILY_REWARD",
      "outputs": [
        {
          "internalType": "uint256",
          "name": "",
          "type": "uint256"
        }
      ],
      "stateMutability": "view",
      "type": "function"
    },
    {
      "inputs": [],
      "name": "NFT_WEIGHT",
      "outputs": [
        {
          "internalType": "uint256",
          "name": "",
          "type": "uint256"
        }
      ],
      "stateMutability": "view",
      "type": "function"
    },
    {
      "inputs": [],
      "name": "REWARD_RATE",
      "outputs": [
        {
          "internalType": "uint256",
          "name": "",
          "type": "uint256"
        }
      ],
      "stateMutability": "view",
      "type": "function"
    },
    {
      "inputs": [],
      "name": "SECONDS_PER_DAY",
      "outputs": [
        {
          "internalType": "uint256",
          "name": "",
          "type": "uint256"
        }
      ],
      "stateMutability": "view",
      "type": "function"
    },
    {
      "inputs": [],
      "name": "claim",
      "outputs": [],
      "stateMutability": "nonpayable",
      "type": "function"
    },
    {
      "inputs": [
        {
          "internalType": "address",
          "name": "account",
          "type": "address"
        }
      ],
      "name": "earned",
      "outputs": [
        {
          "internalType": "uint256",
          "name": "",
          "type": "uint256"
        }
      ],
      "stateMutability": "view",
      "type": "function"
    },
    {
      "inputs": [],
      "name": "exit",
      "outputs": [],
      "stateMutability": "nonpayable",
      "type": "function"
    },
    {
      "inputs": [
        {
          "internalType": "address",
          "name": "account",
          "type": "address"
        }
      ],
      "name": "getUserInfo",
      "outputs": [
        {
          "components": [
            {
              "internalType": "uint256",
              "name": "stakedTokens",
              "type": "uint256"
            },
            {
              "internalType": "uint256",
              "name": "stakedNFTs",
              "type": "uint256"
            },
            {
              "internalType": "uint256",
              "name": "weight",
              "type": "uint256"
            },
            {
              "internalType": "uint256",
              "name": "rewards",
              "type": "uint256"
            },
            {
              "internalType": "uint256",
              "name": "rewardPerWeightPaid",
              "type": "uint256"
            },
            {
              "internalType": "uint256",
              "name": "claimed",
              "type": "uint256"
            }
          ],
          "internalType": "struct LaunchpadStaking.UserInfo",
          "name": "",
          "type": "tuple"
        }
      ],
      "stateMutability": "view",
      "type": "function"
    },
    {
      "inputs": [],
      "name": "lastUpdateTime",
      "outputs": [
        {
          "internalType": "uint256",
          "name": "",
          "type": "uint256"
        }
      ],
      "stateMutability": "view",
      "type": "function"
    },
    {
      "inputs": [
        {
          "internalType": "address",
          "name": "",
          "type": "address"
        },
        {
          "internalType": "address",
          "name": "",
          "type": "address"
        },
        {
          "internalType": "uint256",
          "name": "",
          "type": "uint256"
        },
        {
          "internalType": "bytes",
          "name": "",
          "type": "bytes"
        }
      ],
      "name": "onERC721Received",
      "outputs": [
        {
          "internalType": "bytes4",
          "name": "",
          "type": "bytes4"
        }
      ],
      "stateMutability": "pure",
      "type": "function"
    },
    {
      "inputs": [],
      "name": "owner",
      "outputs": [
        {
          "internalType": "address",
          "name": "",
          "type": "address"
        }
      ],
      "stateMutability": "view",
      "type": "function"
    },
    {
      "inputs": [
        {
          "internalType": "address",
          "name": "account",
          "type": "address"
        }
      ],
      "name": "pendingRewards",
      "outputs": [
        {
          "internalType": "uint256",
          "name": "",
          "type": "uint256"
        }
      ],
      "stateMutability": "view",
      "type": "function"
    },
    {
      "inputs": [],
      "name": "renounceOwnership",
      "outputs": [],
      "stateMutability": "nonpayable",
      "type": "function"
    },
    {
      "inputs": [],
      "name": "rewardPerWeight",
      "outputs": [
        {
          "internalType": "uint256",
          "name": "",
          "type": "uint256"
        }
      ],
      "stateMutability": "view",
      "type": "function"
    },
    {
      "inputs": [],
      "name": "rewardPerWeightStored",
      "outputs": [
        {
          "internalType": "uint256",
          "name": "",
          "type": "uint256"
        }
      ],
      "stateMutability": "view",
      "type": "function"
    },
    {
      "inputs": [],
      "name": "rewardToken",
      "outputs": [
        {
          "internalType": "contract IEarnToken",
          "name": "",
          "type": "address"
        }
      ],
      "stateMutability": "view",
      "type": "function"
    },
    {
      "inputs": [
        {
          "internalType": "uint256",
          "name": "tokenId",
          "type": "uint256"
        }
      ],
      "name": "stakeNFT",
      "outputs": [],
      "stateMutability": "nonpayable",
      "type": "function"
    },
    {
      "inputs": [],
      "name": "stakeNftToken",
      "outputs": [
        {
          "internalType": "contract IERC721",
          "name": "",
          "type": "address"
        }
      ],
      "stateMutability": "view",
      "type": "function"
    },
    {
      "inputs": [],
      "name": "stakeToken",
      "outputs": [
        {
          "internalType": "contract IERC20",
          "name": "",
          "type": "address"
        }
      ],
      "stateMutability": "view",
      "type": "function"
    },
    {
      "inputs": [
        {
          "internalType": "uint256",
          "name": "amount",
          "type": "uint256"
        }
      ],
      "name": "stakeTokens",
      "outputs": [],
      "stateMutability": "nonpayable",
      "type": "function"
    },
    {
      "inputs": [
        {
          "internalType": "address",
          "name": "account",
          "type": "address"
        }
      ],
      "name": "stakedNFTs",
      "outputs": [
        {
          "internalType": "uint256[]",
          "name": "",
          "type": "uint256[]"
        }
      ],
      "stateMutability": "view",
      "type": "function"
    },
    {
      "inputs": [],
      "name": "totalAccruedRewards",
      "outputs": [
        {
          "internalType": "uint256",
          "name": "",
          "type": "uint256"
        }
      ],
      "stateMutability": "view",
      "type": "function"
    },
    {
      "inputs": [
        {
          "internalType": "address",
          "name": "account",
          "type": "address"
        }
      ],
      "name": "totalClaimed",
      "outputs": [
        {
          "internalType": "uint256",
          "name": "",
          "type": "uint256"
        }
      ],
      "stateMutability": "view",
      "type": "function"
    },
    {
      "inputs": [],
      "name": "totalClaimedRewards",
      "outputs": [
        {
          "internalType": "uint256",
          "name": "",
          "type": "uint256"
        }
      ],
      "stateMutability": "view",
      "type": "function"
    },
    {
      "inputs": [
        {
          "internalType": "address",
          "name": "account",
          "type": "address"
        }
      ],
      "name": "totalEarned",
      "outputs": [
        {
          "internalType": "uint256",
          "name": "",
          "type": "uint256"
        }
      ],
      "stateMutability": "view",
      "type": "function"
    },
    {
      "inputs": [],
      "name": "totalRewardsAccrued",
      "outputs": [
        {
          "internalType": "uint256",
          "name": "",
          "type": "uint256"
        }
      ],
      "stateMutability": "view",
      "type": "function"
    },
    {
      "inputs": [],
      "name": "totalRewardsClaimed",
      "outputs": [
        {
          "internalType": "uint256",
          "name": "",
          "type": "uint256"
        }
      ],
      "stateMutability": "view",
      "type": "function"
    },
    {
      "inputs": [],
      "name": "totalRewardsPending",
      "outputs": [
        {
          "internalType": "uint256",
          "name": "",
          "type": "uint256"
        }
      ],
      "stateMutability": "view",
      "type": "function"
    },
    {
      "inputs": [],
      "name": "totalWeight",
      "outputs": [
        {
          "internalType": "uint256",
          "name": "",
          "type": "uint256"
        }
      ],
      "stateMutability": "view",
      "type": "function"
    },
    {
      "inputs": [
        {
          "internalType": "address",
          "name": "newOwner",
          "type": "address"
        }
      ],
      "name": "transferOwnership",
      "outputs": [],
      "stateMutability": "nonpayable",
      "type": "function"
    },
    {
      "inputs": [
        {
          "internalType": "uint256",
          "name": "tokenId",
          "type": "uint256"
        }
      ],
      "name": "unstakeNFT",
      "outputs": [],
      "stateMutability": "nonpayable",
      "type": "function"
    },
    {
      "inputs": [
        {
          "internalType": "uint256",
          "name": "amount",
          "type": "uint256"
        }
      ],
      "name": "unstakeTokens",
      "outputs": [],
      "stateMutability": "nonpayable",
      "type": "function"
    },
    {
      "inputs": [
        {
          "internalType": "address",
          "name": "",
          "type": "address"
        }
      ],
      "name": "userInfo",
      "outputs": [
        {
          "internalType": "uint256",
          "name": "stakedTokens",
          "type": "uint256"
        },
        {
          "internalType": "uint256",
          "name": "stakedNFTs",
          "type": "uint256"
        },
        {
          "internalType": "uint256",
          "name": "weight",
          "type": "uint256"
        },
        {
          "internalType": "uint256",
          "name": "rewards",
          "type": "uint256"
        },
        {
          "internalType": "uint256",
          "name": "rewardPerWeightPaid",
          "type": "uint256"
        },
        {
          "internalType": "uint256",
          "name": "claimed",
          "type": "uint256"
        }
      ],
      "stateMutability": "view",
      "type": "function"
    }
  ],
  "bytecode": "0x60e060405234801561001057600080fd5b5060405161308538038061308583398181016040528101906100329190610424565b83600073ffffffffffffffffffffffffffffffffffffffff168173ffffffffffffffffffffffffffffffffffffffff16036100a55760006040517f1e4fbdf700000000000000000000000000000000000000000000000000000000815260040161009c919061049a565b60405180910390fd5b6100b48161024360201b60201c565b50600073ffffffffffffffffffffffffffffffffffffffff168373ffffffffffffffffffffffffffffffffffffffff161415801561011f5750600073ffffffffffffffffffffffffffffffffffffffff168273ffffffffffffffffffffffffffffffffffffffff1614155b80156101585750600073ffffffffffffffffffffffffffffffffffffffff168173ffffffffffffffffffffffffffffffffffffffff1614155b610197576040517f08c379a000000000000000000000000000000000000000000000000000000000815260040161018e90610512565b60405180910390fd5b8273ffffffffffffffffffffffffffffffffffffffff1660808173ffffffffffffffffffffffffffffffffffffffff16815250508173ffffffffffffffffffffffffffffffffffffffff1660a08173ffffffffffffffffffffffffffffffffffffffff16815250508073ffffffffffffffffffffffffffffffffffffffff1660c08173ffffffffffffffffffffffffffffffffffffffff16815250504260028190555050505050610532565b60008060009054906101000a900473ffffffffffffffffffffffffffffffffffffffff169050816000806101000a81548173ffffffffffffffffffffffffffffffffffffffff021916908373ffffffffffffffffffffffffffffffffffffffff1602179055508173ffffffffffffffffffffffffffffffffffffffff168173ffffffffffffffffffffffffffffffffffffffff167f8be0079c531659141344cd1fd0a4f28419497f9722a3daafe3b4186f6b6457e060405160405180910390a35050565b600080fd5b600073ffffffffffffffffffffffffffffffffffffffff82169050919050565b60006103378261030c565b9050919050565b6103478161032c565b811461035257600080fd5b50565b6000815190506103648161033e565b92915050565b60006103758261032c565b9050919050565b6103858161036a565b811461039057600080fd5b50565b6000815190506103a28161037c565b92915050565b60006103b38261032c565b9050919050565b6103c3816103a8565b81146103ce57600080fd5b50565b6000815190506103e0816103ba565b92915050565b60006103f18261032c565b9050919050565b610401816103e6565b811461040c57600080fd5b50565b60008151905061041e816103f8565b92915050565b6000806000806080858703121561043e5761043d610307565b5b600061044c87828801610355565b945050602061045d87828801610393565b935050604061046e878288016103d1565b925050606061047f8782880161040f565b91505092959194509250565b6104948161032c565b82525050565b60006020820190506104af600083018461048b565b92915050565b600082825260208201905092915050565b7f696e76616c696420616464726573730000000000000000000000000000000000600082015250565b60006104fc600f836104b5565b9150610507826104c6565b602082019050919050565b6000602082019050818103600083015261052b816104ef565b9050919050565b60805160a05160c051612b016105846000396000818161096301526119c9015260008181610ecf0152818161134001526115da015260008181610a4401528181610c5501526112350152612b016000f3fe608060405234801561001057600080fd5b50600436106101fa5760003560e01c806374f0314f1161011a578063c8f33c91116100ad578063d72c9fee1161007c578063d72c9fee14610588578063e9fad8ee146105b8578063ef5d9ae8146105c2578063f2fde38b146105f2578063f7c618c11461060e576101fa565b8063c8f33c9114610510578063cf5800ba1461052e578063d578ceab1461054c578063d6cec5381461056a576101fa565b806396c82e57116100e957806396c82e571461049a5780639cf4426e146104b8578063a34b0f76146104d6578063c1dfa0bb146104f4576101fa565b806374f0314f146104245780637547c7a314610442578063860c19f31461045e5780638da5cb5b1461047c576101fa565b806351ed6a3011610192578063649aca4a11610161578063649aca4a146103b057806365d0720f146103e05780636eb604e0146103fe578063715018a61461041a576101fa565b806351ed6a30146103285780635997bb3714610346578063608e4dd0146103645780636386c1c714610380576101fa565b806331d7a262116101ce57806331d7a262146102b25780633228dd59146102e25780634ac4b6e0146103005780634e71d92d1461031e576101fa565b80628cc262146101ff578063150b7a021461022f5780631959a0021461025f5780632ac3f45014610294575b600080fd5b6102196004803603810190610214919061211c565b61062c565b6040516102269190612162565b60405180910390f35b6102496004803603810190610244919061220e565b6106c6565b60405161025691906122d1565b60405180910390f35b6102796004803603810190610274919061211c565b6106db565b60405161028b969594939291906122ec565b60405180910390f35b61029c610717565b6040516102a99190612162565b60405180910390f35b6102cc60048036038101906102c7919061211c565b61079c565b6040516102d99190612162565b60405180910390f35b6102ea6107ae565b6040516102f79190612162565b60405180910390f35b6103086107b4565b6040516103159190612162565b60405180910390f35b6103266107ba565b005b610330610a42565b60405161033d91906123ac565b60405180910390f35b61034e610a66565b60405161035b9190612162565b60405180910390f35b61037e600480360381019061037991906123c7565b610a82565b005b61039a6004803603810190610395919061211c565b610ced565b6040516103a7919061247e565b60405180910390f35b6103ca60048036038101906103c5919061211c565b610d82565b6040516103d79190612162565b60405180910390f35b6103e8610de6565b6040516103f59190612162565b60405180910390f35b610418600480360381019061041391906123c7565b610df3565b005b6104226110b2565b005b61042c6110c6565b6040516104399190612162565b60405180910390f35b61045c600480360381019061045791906123c7565b6110cd565b005b6104666112f3565b6040516104739190612162565b60405180910390f35b61048461130f565b60405161049191906124a8565b60405180910390f35b6104a2611338565b6040516104af9190612162565b60405180910390f35b6104c061133e565b6040516104cd91906124e4565b60405180910390f35b6104de611362565b6040516104eb9190612162565b60405180910390f35b61050e600480360381019061050991906123c7565b61136c565b005b6105186116bb565b6040516105259190612162565b60405180910390f35b6105366116c1565b6040516105439190612162565b60405180910390f35b6105546116cf565b6040516105619190612162565b60405180910390f35b6105726116d5565b60405161057f9190612162565b60405180910390f35b6105a2600480360381019061059d919061211c565b61170b565b6040516105af91906125ae565b60405180910390f35b6105c0611800565b005b6105dc60048036038101906105d7919061211c565b6118f5565b6040516105e99190612162565b60405180910390f35b61060c6004803603810190610607919061211c565b611941565b005b6106166119c7565b60405161062391906125f1565b60405180910390f35b600080600660008473ffffffffffffffffffffffffffffffffffffffff1673ffffffffffffffffffffffffffffffffffffffff16815260200190815260200160002090506000670de0b6b3a76400008260040154610688610717565b610692919061263b565b83600201546106a1919061266f565b6106ab91906126e0565b90508160030154816106bd9190612711565b92505050919050565b600063150b7a0260e01b905095945050505050565b60066020528060005260406000206000915090508060000154908060010154908060020154908060030154908060040154908060050154905086565b6000806001540361072c576003549050610799565b60006002544261073c919061263b565b90506000600154670de0b6b3a76400006201518069021e19e0c9bab240000061076591906126e0565b84610770919061266f565b61077a919061266f565b61078491906126e0565b9050806003546107949190612711565b925050505b90565b60006107a78261062c565b9050919050565b60035481565b60045481565b3360006107c56119eb565b905060008111156107ea5780600460008282546107e29190612711565b925050819055505b6107f2610717565b60038190555042600281905550600073ffffffffffffffffffffffffffffffffffffffff168273ffffffffffffffffffffffffffffffffffffffff1614610894576000600660008473ffffffffffffffffffffffffffffffffffffffff1673ffffffffffffffffffffffffffffffffffffffff168152602001908152602001600020905061087f8361062c565b81600301819055506003548160040181905550505b6000600660003373ffffffffffffffffffffffffffffffffffffffff1673ffffffffffffffffffffffffffffffffffffffff168152602001908152602001600020905060008160030154905060008111610923576040517f08c379a000000000000000000000000000000000000000000000000000000000815260040161091a906127a2565b60405180910390fd5b60008260030181905550808260050160008282546109419190612711565b92505081905550806005600082825461095a9190612711565b925050819055507f000000000000000000000000000000000000000000000000000000000000000073ffffffffffffffffffffffffffffffffffffffff166340c10f1933836040518363ffffffff1660e01b81526004016109bc9291906127c2565b600060405180830381600087803b1580156109d657600080fd5b505af11580156109ea573d6000803e3d6000fd5b505050503373ffffffffffffffffffffffffffffffffffffffff167fe2403640ba68fed3a2f88b7557551d1993f84b99bb10ff833f0cf8db0c5e048682604051610a349190612162565b60405180910390a250505050565b7f000000000000000000000000000000000000000000000000000000000000000081565b6201518069021e19e0c9bab2400000610a7f91906126e0565b81565b336000610a8d6119eb565b90506000811115610ab2578060046000828254610aaa9190612711565b925050819055505b610aba610717565b60038190555042600281905550600073ffffffffffffffffffffffffffffffffffffffff168273ffffffffffffffffffffffffffffffffffffffff1614610b5c576000600660008473ffffffffffffffffffffffffffffffffffffffff1673ffffffffffffffffffffffffffffffffffffffff1681526020019081526020016000209050610b478361062c565b81600301819055506003548160040181905550505b60008311610b9f576040517f08c379a0000000000000000000000000000000000000000000000000000000008152600401610b9690612837565b60405180910390fd5b6000600660003373ffffffffffffffffffffffffffffffffffffffff1673ffffffffffffffffffffffffffffffffffffffff16815260200190815260200160002090508381600001541015610c29576040517f08c379a0000000000000000000000000000000000000000000000000000000008152600401610c20906128a3565b60405180910390fd5b83816000016000828254610c3d919061263b565b92505081905550610c4e3385611a3c565b610c9933857f000000000000000000000000000000000000000000000000000000000000000073ffffffffffffffffffffffffffffffffffffffff16611ab29092919063ffffffff16565b3373ffffffffffffffffffffffffffffffffffffffff167ff6e150e51c76005159a20fcadc3a9f06fba011914a1faeba1c7e8d82860643f785604051610cdf9190612162565b60405180910390a250505050565b610cf561207e565b600660008373ffffffffffffffffffffffffffffffffffffffff1673ffffffffffffffffffffffffffffffffffffffff1681526020019081526020016000206040518060c001604052908160008201548152602001600182015481526020016002820154815260200160038201548152602001600482015481526020016005820154815250509050919050565b600080600660008473ffffffffffffffffffffffffffffffffffffffff1673ffffffffffffffffffffffffffffffffffffffff1681526020019081526020016000209050610dcf8361062c565b8160050154610dde9190612711565b915050919050565b681043561a882930000081565b336000610dfe6119eb565b90506000811115610e23578060046000828254610e1b9190612711565b925050819055505b610e2b610717565b60038190555042600281905550600073ffffffffffffffffffffffffffffffffffffffff168273ffffffffffffffffffffffffffffffffffffffff1614610ecd576000600660008473ffffffffffffffffffffffffffffffffffffffff1673ffffffffffffffffffffffffffffffffffffffff1681526020019081526020016000209050610eb88361062c565b81600301819055506003548160040181905550505b7f000000000000000000000000000000000000000000000000000000000000000073ffffffffffffffffffffffffffffffffffffffff166342842e0e3330866040518463ffffffff1660e01b8152600401610f2a939291906128c3565b600060405180830381600087803b158015610f4457600080fd5b505af1158015610f58573d6000803e3d6000fd5b50505050610fad83600760003373ffffffffffffffffffffffffffffffffffffffff1673ffffffffffffffffffffffffffffffffffffffff168152602001908152602001600020611b3190919063ffffffff16565b610fec576040517f08c379a0000000000000000000000000000000000000000000000000000000008152600401610fe390612946565b60405180910390fd5b6000600660003373ffffffffffffffffffffffffffffffffffffffff1673ffffffffffffffffffffffffffffffffffffffff168152602001908152602001600020905060018160010160008282546110449190612711565b9250508190555061105e33681043561a8829300000611b4b565b3373ffffffffffffffffffffffffffffffffffffffff167f173ca1bf74155b9dca4f4031e88b399af1aa5c87b77ef963a87a419d486977d8856040516110a49190612162565b60405180910390a250505050565b6110ba611bc1565b6110c46000611c48565b565b6201518081565b3360006110d86119eb565b905060008111156110fd5780600460008282546110f59190612711565b925050819055505b611105610717565b60038190555042600281905550600073ffffffffffffffffffffffffffffffffffffffff168273ffffffffffffffffffffffffffffffffffffffff16146111a7576000600660008473ffffffffffffffffffffffffffffffffffffffff1673ffffffffffffffffffffffffffffffffffffffff16815260200190815260200160002090506111928361062c565b81600301819055506003548160040181905550505b600083116111ea576040517f08c379a00000000000000000000000000000000000000000000000000000000081526004016111e190612837565b60405180910390fd5b6000600660003373ffffffffffffffffffffffffffffffffffffffff1673ffffffffffffffffffffffffffffffffffffffff168152602001908152602001600020905061127a3330867f000000000000000000000000000000000000000000000000000000000000000073ffffffffffffffffffffffffffffffffffffffff16611d0c909392919063ffffffff16565b8381600001600082825461128e9190612711565b9250508190555061129f3385611b4b565b3373ffffffffffffffffffffffffffffffffffffffff167f95d0aa551474aeee124f0d92b9adb26d65b9472f637c408329a728e40ad0e8ef856040516112e59190612162565b60405180910390a250505050565b60006112fd6119eb565b60045461130a9190612711565b905090565b60008060009054906101000a900473ffffffffffffffffffffffffffffffffffffffff16905090565b60015481565b7f000000000000000000000000000000000000000000000000000000000000000081565b6000600554905090565b3360006113776119eb565b9050600081111561139c5780600460008282546113949190612711565b925050819055505b6113a4610717565b60038190555042600281905550600073ffffffffffffffffffffffffffffffffffffffff168273ffffffffffffffffffffffffffffffffffffffff1614611446576000600660008473ffffffffffffffffffffffffffffffffffffffff1673ffffffffffffffffffffffffffffffffffffffff16815260200190815260200160002090506114318361062c565b81600301819055506003548160040181905550505b61149783600760003373ffffffffffffffffffffffffffffffffffffffff1673ffffffffffffffffffffffffffffffffffffffff168152602001908152602001600020611d8e90919063ffffffff16565b6114d6576040517f08c379a00000000000000000000000000000000000000000000000000000000081526004016114cd906129b2565b60405180910390fd5b61152783600760003373ffffffffffffffffffffffffffffffffffffffff1673ffffffffffffffffffffffffffffffffffffffff168152602001908152602001600020611da890919063ffffffff16565b611566576040517f08c379a000000000000000000000000000000000000000000000000000000000815260040161155d90612a1e565b60405180910390fd5b6000600660003373ffffffffffffffffffffffffffffffffffffffff1673ffffffffffffffffffffffffffffffffffffffff168152602001908152602001600020905060018160010160008282546115be919061263b565b925050819055506115d833681043561a8829300000611a3c565b7f000000000000000000000000000000000000000000000000000000000000000073ffffffffffffffffffffffffffffffffffffffff166342842e0e3033876040518463ffffffff1660e01b8152600401611635939291906128c3565b600060405180830381600087803b15801561164f57600080fd5b505af1158015611663573d6000803e3d6000fd5b505050503373ffffffffffffffffffffffffffffffffffffffff167fd189f9264d7206fa03765606c54a04ae20609e3055dfcd0e76780c8662a66405856040516116ad9190612162565b60405180910390a250505050565b60025481565b69021e19e0c9bab240000081565b60055481565b6000806116e06112f3565b905060055481111561170257600554816116fa919061263b565b915050611708565b60009150505b90565b60606000600760008473ffffffffffffffffffffffffffffffffffffffff1673ffffffffffffffffffffffffffffffffffffffff1681526020019081526020016000209050600061175b82611dc2565b905060008167ffffffffffffffff81111561177957611778612a3e565b5b6040519080825280602002602001820160405280156117a75781602001602082028036833780820191505090505b50905060005b828110156117f4576117c88185611dd790919063ffffffff16565b8282815181106117db576117da612a6d565b5b60200260200101818152505080806001019150506117ad565b50809350505050919050565b6118086107ba565b6000600660003373ffffffffffffffffffffffffffffffffffffffff1673ffffffffffffffffffffffffffffffffffffffff16815260200190815260200160002060000154905060008111156118625761186181610a82565b5b6000600760003373ffffffffffffffffffffffffffffffffffffffff1673ffffffffffffffffffffffffffffffffffffffff16815260200190815260200160002090505b60006118b182611dc2565b11156118f15760006118e060016118c784611dc2565b6118d1919061263b565b83611dd790919063ffffffff16565b90506118eb8161136c565b506118a6565b5050565b6000600660008373ffffffffffffffffffffffffffffffffffffffff1673ffffffffffffffffffffffffffffffffffffffff168152602001908152602001600020600501549050919050565b611949611bc1565b600073ffffffffffffffffffffffffffffffffffffffff168173ffffffffffffffffffffffffffffffffffffffff16036119bb5760006040517f1e4fbdf70000000000000000000000000000000000000000000000000000000081526004016119b291906124a8565b60405180910390fd5b6119c481611c48565b50565b7f000000000000000000000000000000000000000000000000000000000000000081565b600080600154036119ff5760009050611a39565b600060025442611a0f919061263b565b90506201518069021e19e0c9bab2400000611a2a91906126e0565b81611a35919061266f565b9150505b90565b8060016000828254611a4e919061263b565b9250508190555080600660008473ffffffffffffffffffffffffffffffffffffffff1673ffffffffffffffffffffffffffffffffffffffff1681526020019081526020016000206002016000828254611aa7919061263b565b925050819055505050565b611b2c838473ffffffffffffffffffffffffffffffffffffffff1663a9059cbb8585604051602401611ae59291906127c2565b604051602081830303815290604052915060e01b6020820180517bffffffffffffffffffffffffffffffffffffffffffffffffffffffff8381831617835250505050611df1565b505050565b6000611b43836000018360001b611e93565b905092915050565b8060016000828254611b5d9190612711565b9250508190555080600660008473ffffffffffffffffffffffffffffffffffffffff1673ffffffffffffffffffffffffffffffffffffffff1681526020019081526020016000206002016000828254611bb69190612711565b925050819055505050565b611bc9611f03565b73ffffffffffffffffffffffffffffffffffffffff16611be761130f565b73ffffffffffffffffffffffffffffffffffffffff1614611c4657611c0a611f03565b6040517f118cdaa7000000000000000000000000000000000000000000000000000000008152600401611c3d91906124a8565b60405180910390fd5b565b60008060009054906101000a900473ffffffffffffffffffffffffffffffffffffffff169050816000806101000a81548173ffffffffffffffffffffffffffffffffffffffff021916908373ffffffffffffffffffffffffffffffffffffffff1602179055508173ffffffffffffffffffffffffffffffffffffffff168173ffffffffffffffffffffffffffffffffffffffff167f8be0079c531659141344cd1fd0a4f28419497f9722a3daafe3b4186f6b6457e060405160405180910390a35050565b611d88848573ffffffffffffffffffffffffffffffffffffffff166323b872dd868686604051602401611d41939291906128c3565b604051602081830303815290604052915060e01b6020820180517bffffffffffffffffffffffffffffffffffffffffffffffffffffffff8381831617835250505050611df1565b50505050565b6000611da0836000018360001b611f0b565b905092915050565b6000611dba836000018360001b611f2e565b905092915050565b6000611dd082600001612042565b9050919050565b6000611de68360000183612053565b60001c905092915050565b600080602060008451602086016000885af180611e14576040513d6000823e3d81fd5b3d925060005191505060008214611e2f576001811415611e4b565b60008473ffffffffffffffffffffffffffffffffffffffff163b145b15611e8d57836040517f5274afe7000000000000000000000000000000000000000000000000000000008152600401611e8491906124a8565b60405180910390fd5b50505050565b6000611e9f8383611f0b565b611ef8578260000182908060018154018082558091505060019003906000526020600020016000909190919091505582600001805490508360010160008481526020019081526020016000208190555060019050611efd565b600090505b92915050565b600033905090565b600080836001016000848152602001908152602001600020541415905092915050565b60008083600101600084815260200190815260200160002054905060008114612036576000600182611f60919061263b565b9050600060018660000180549050611f78919061263b565b9050808214611fe7576000866000018281548110611f9957611f98612a6d565b5b9060005260206000200154905080876000018481548110611fbd57611fbc612a6d565b5b90600052602060002001819055508387600101600083815260200190815260200160002081905550505b85600001805480611ffb57611ffa612a9c565b5b60019003818190600052602060002001600090559055856001016000868152602001908152602001600020600090556001935050505061203c565b60009150505b92915050565b600081600001805490509050919050565b600082600001828154811061206b5761206a612a6d565b5b9060005260206000200154905092915050565b6040518060c001604052806000815260200160008152602001600081526020016000815260200160008152602001600081525090565b600080fd5b600080fd5b600073ffffffffffffffffffffffffffffffffffffffff82169050919050565b60006120e9826120be565b9050919050565b6120f9816120de565b811461210457600080fd5b50565b600081359050612116816120f0565b92915050565b600060208284031215612132576121316120b4565b5b600061214084828501612107565b91505092915050565b6000819050919050565b61215c81612149565b82525050565b60006020820190506121776000830184612153565b92915050565b61218681612149565b811461219157600080fd5b50565b6000813590506121a38161217d565b92915050565b600080fd5b600080fd5b600080fd5b60008083601f8401126121ce576121cd6121a9565b5b8235905067ffffffffffffffff8111156121eb576121ea6121ae565b5b602083019150836001820283011115612207576122066121b3565b5b9250929050565b60008060008060006080868803121561222a576122296120b4565b5b600061223888828901612107565b955050602061224988828901612107565b945050604061225a88828901612194565b935050606086013567ffffffffffffffff81111561227b5761227a6120b9565b5b612287888289016121b8565b92509250509295509295909350565b60007fffffffff0000000000000000000000000000000000000000000000000000000082169050919050565b6122cb81612296565b82525050565b60006020820190506122e660008301846122c2565b92915050565b600060c0820190506123016000830189612153565b61230e6020830188612153565b61231b6040830187612153565b6123286060830186612153565b6123356080830185612153565b61234260a0830184612153565b979650505050505050565b6000819050919050565b600061237261236d612368846120be565b61234d565b6120be565b9050919050565b600061238482612357565b9050919050565b600061239682612379565b9050919050565b6123a68161238b565b82525050565b60006020820190506123c1600083018461239d565b92915050565b6000602082840312156123dd576123dc6120b4565b5b60006123eb84828501612194565b91505092915050565b6123fd81612149565b82525050565b60c08201600082015161241960008501826123f4565b50602082015161242c60208501826123f4565b50604082015161243f60408501826123f4565b50606082015161245260608501826123f4565b50608082015161246560808501826123f4565b5060a082015161247860a08501826123f4565b50505050565b600060c0820190506124936000830184612403565b92915050565b6124a2816120de565b82525050565b60006020820190506124bd6000830184612499565b92915050565b60006124ce82612379565b9050919050565b6124de816124c3565b82525050565b60006020820190506124f960008301846124d5565b92915050565b600081519050919050565b600082825260208201905092915050565b6000819050602082019050919050565b600061253783836123f4565b60208301905092915050565b6000602082019050919050565b600061255b826124ff565b612565818561250a565b93506125708361251b565b8060005b838110156125a1578151612588888261252b565b975061259383612543565b925050600181019050612574565b5085935050505092915050565b600060208201905081810360008301526125c88184612550565b905092915050565b60006125db82612379565b9050919050565b6125eb816125d0565b82525050565b600060208201905061260660008301846125e2565b92915050565b7f4e487b7100000000000000000000000000000000000000000000000000000000600052601160045260246000fd5b600061264682612149565b915061265183612149565b92508282039050818111156126695761266861260c565b5b92915050565b600061267a82612149565b915061268583612149565b925082820261269381612149565b915082820484148315176126aa576126a961260c565b5b5092915050565b7f4e487b7100000000000000000000000000000000000000000000000000000000600052601260045260246000fd5b60006126eb82612149565b91506126f683612149565b925082612706576127056126b1565b5b828204905092915050565b600061271c82612149565b915061272783612149565b925082820190508082111561273f5761273e61260c565b5b92915050565b600082825260208201905092915050565b7f6e6f207265776172647300000000000000000000000000000000000000000000600082015250565b600061278c600a83612745565b915061279782612756565b602082019050919050565b600060208201905081810360008301526127bb8161277f565b9050919050565b60006040820190506127d76000830185612499565b6127e46020830184612153565b9392505050565b7f616d6f756e74203d203000000000000000000000000000000000000000000000600082015250565b6000612821600a83612745565b915061282c826127eb565b602082019050919050565b6000602082019050818103600083015261285081612814565b9050919050565b7f696e73756666696369656e74207374616b650000000000000000000000000000600082015250565b600061288d601283612745565b915061289882612857565b602082019050919050565b600060208201905081810360008301526128bc81612880565b9050919050565b60006060820190506128d86000830186612499565b6128e56020830185612499565b6128f26040830184612153565b949350505050565b7f7374616b65206661696c65640000000000000000000000000000000000000000600082015250565b6000612930600c83612745565b915061293b826128fa565b602082019050919050565b6000602082019050818103600083015261295f81612923565b9050919050565b7f6e6f74207374616b656400000000000000000000000000000000000000000000600082015250565b600061299c600a83612745565b91506129a782612966565b602082019050919050565b600060208201905081810360008301526129cb8161298f565b9050919050565b7f72656d6f7665206661696c656400000000000000000000000000000000000000600082015250565b6000612a08600d83612745565b9150612a13826129d2565b602082019050919050565b60006020820190508181036000830152612a37816129fb565b9050919050565b7f4e487b7100000000000000000000000000000000000000000000000000000000600052604160045260246000fd5b7f4e487b7100000000000000000000000000000000000000000000000000000000600052603260045260246000fd5b7f4e487b7100000000000000000000000000000000000000000000000000000000600052603160045260246000fdfea264697066735822122021671994b9953147492c54ffbb0d78445262744959bde4b69f347a8796bf36a264736f6c634300081c0033",
  "linkReferences": {},
  "deployedLinkReferences": {}
}